:400000000010002011000000D9010000D901000080B500AF00F06CFA00F0E2F880B500AF0F4B0F4A12688021C9020A431A60202001F0E8FB0B4B0C4A1A600C4B10221A6046
:400040000B4B802212061A60054B802212031A60084B094A1A60094B00221A60BD4680BD00010B4004010B40060000800C02024008010B4000000240160000800C020B402E
:4000800080B582B000AF72B6FB1D00221A7023E0FB1D1A78131C5B009B185B00294A9B183B603B681A78597809020A43997809040A43DB781B061343191C3B681A795B7966
:4000C0001B0213439BB2081C191C00F00FF9FB1D1A78FB1D01321A70FB1D1B78012BD7D9194B1A4A1A601A4B992212041A60194A184B1B78DBB202210B43DBB21370164A30
:40010000154B1B78DBB23C218B43DBB214210B43DBB213700F4A0F4B1B78DBB216210B43DBB213700D4B02221A600D4B0D4A1A600D4B02221A60FFF771FF00F0E7F8BD463F
:4001400002B080BD9C2100000C00014099EE000030500F4000700F4001700F400003044008030440B10D00001803044010B5064C2378002B07D1054B002B02D0044800E0D0
:4001800000BF0123237010BDF0000020000000009821000008B5084B002B03D00748084900E000BF07480368002B00D108BD064B002BFBD09847F9E70000000098210000AC
:4001C000F4000020D00000200000000080B500AF62B600F031F9FEE780B500AFFEE7C04680B586B000AF224B7B61224B3B61204B7B6135E03B691B68FB603B695B68BB6065
:400200003B699B683B6000237B600CE0FB681A68BB681A60BB680433BB60FB680433FB607B6804337B607A683B689A42EED13B69DB683B6000237B6008E0BB6800221A606A
:40024000BB680433BB607B6804337B607A683B689A42F2D13B6910333B617B69013B7B617B69002BC6D101F05BFFFFF7AFFFFEE7010000008C22000080B582B000AF00230F
:400280007B600FE07B68032B04D8134B7A689200D35800E0114B124A796889008B507B6801337B607B682F2BECD9FFF7E9FE0D4B00221A600C4B1B68002B02D10A4B002299
:4002C0001A608023DB058022D205126801210A431A60BD4602B080BD00000000D901000000000020C8000020C000002080B582B000AF786039607A683B68101C00211A1CE2
:4003000001F03DFFBD4602B080BDC04680B500AFBD4680BD80B584B000AF78600A1CBB1C1A800E23FB1800221A8012E0BB1C1B88013B7A68D3181B7899B20E23FB180E2226
:40034000BA1812888A181A80BB1C1A88BB1C013A1A80BB1C1B88002BE8D10E23FB181B885B429BB2181CBD4604B080BD80B586B000AFF860B960BB1D1A801723FB180022ED
:400380001A701423FB1800221A801AE01423FB181A88FB68D3181B78DAB21423FB181B88B968CB181B789A4204D01723FB1802221A700DE01423FB181A881423FB180132D5
:4003C0001A801423FA18BB1D12881B889A42DDD31723FB181B78181CBD4606B080BDC04680B586B000AFF860B9607A601723FB1800221A70FB68002B02D0002001F096FB09
:400400000FE07B68013B7B60FA68BB68D2187B68D31819781723FB181722BA1812788A181A707B68002BECD11723FB181B78181CBD4606B080BDC04690B583B000AF0623CC
:400440007B60002000F084F8031E01D100237B601E4B1B681B68C03BFC1C0020C0211A1CFFF7BEFF031C2370194B1B681A78FB1CF91C09788A1A1A70FB1CFA1C1278524267
:400480001A70134B1B681B78FA1C12789A4204D10E4B1B681B68002B02D1002001F046FB0C4B1B68402B02D07B68002B05D0094B00221A60002000F0D3F8142000F0D0F88D
:4004C00000F00AF8BD4603B090BDC046D8000020D4000020C000002080B500AF034B80221A6001F02DFBBD4680BDC046C000002080B582B000AF134B1B681022134002D159
:40050000114B00221A60104B1B68802B17D1FB1D00221A700C4B00221A60FB1D1B780220191C00F0A9FE031E09D0FB1D1B780220191C00F0A1FE031C181C00F007F8BD4632
:4005400002B080BD00030B40C00000200047C04690B587B000AF021CFB1D1A70FB1D1B780320191C00F088FE031C0133DC01FB1D1B780420191C00F07FFE031CE318FB6097
:400580001323FB1800221A701223FB1800221A70FB1D1B780620191C00F06EFE031E012B01D1002356E0FB1D1B780320191C00F063FE031C0133DB017B611FE07A690B2309
:4005C000FB1812781A700B23FB181B78002B08D00B23FB181B78FF2B03D01323FB1801221A701223FB181222B9180B22BA18097812788A181A707B6901337B617A69FB6879
:400600009A42DBD31223FB181222BA18127852421A701223FB181C78FB1D1B780120191C00F02AFE031C9C4204D11323FB181B78002B01D106230DE0FB1D1A78131C5B064A
:400640009B1ADB01054A94466344181C012100F0C7FD0023181CBD4607B090BDD17F000090B5DB4CA54400AF021CDA4BCE2189008C46BC4463441A70D74BFB1800221A80AE
:40068000D64BFB180A221A70CC239B00FB1800221A70D34BFB1800221A70CB239B00FB1800221A8001F094FA62B6CE4BFB1800221A70C84BCE2292009446BC4463441B78BA
:4006C000002B07D0C34BCE2292009446BC4463441B7800E0FF23EA225200B81896225100C0229200BA1801F079FA031CC8229200BA181360B74BCE2292009446BC4463448C
:400700001B78002B06D0B54BFB181A78B34BFB18013A1A70B14BFB181B78002B05D0C8239B00FB181B68002BC3D1C8239B00FB181B68002B01D000F0D8FCC0239B00FB18C0
:400740001B88062B08D9A84BCE2292009446BC4463441B78012B04D0A24BFB1804221A7073E0A14BCE2292009446BC446344DB789BB21B0299B29C4BCE2292009446BC44FE
:4007800063449B789AB2944BFB180A431A80924BFB181B880733C0229200BA181288934207D88D4BFB181B88DA1D96235B009A4204D98C4BFB1803221A7046E0864BFB1804
:4007C0001B880533884ACE2189008C46BC446244D35C9BB21B0299B27F4BFB181B880433814ACE2080008446BC446244D35C9AB27E4BFB180A431A80774BFB181B88063329
:40080000794ACE2189008C46BC446244D35C172B04D0744BFB1804221A7016E06E4BFB181B8804339BB2EA225200BA18101C191CFFF770FD031C1A1C6C4BFB181B889342CA
:4008400003D0684BFB1808221A70694BFB1800221A80644BFB181B78002B01D000F037FC644BFB18604ACE2189008C46BC44624412791A705B4BFB1804221A705A4BCE22C5
:4008800092009446BC4463445B78313B142B00D970E39A00584BD3181B689F46504BFB181B78012B1DD14C4BFB181B88002B18D10020FFF74DFE031C5A425341DBB21A1CBC
:4008C000494BCE2189008C46BC4463441A71484BFB1801221A80434BFB1800221A7000F0F6FB00F0F4FB3E4BFB181B78012B00D09BE0394BFB181B88032B05D0364BFB1801
:400900001B88832B00D090E0374BCE2292009446BC4463449B799BB21B0299B2324BCE2292009446BC4463445B799AB2334BFB180A431A80C6239B00FB1800221A80294BF9
:40094000FB1800221A702A4BFB1800221A80224BFB181B88032B0DD01F4BFB181B88DA1EA823F918EA235B00FB180733081C191C01F0FCFB1F4BFB181B78002B50D11D4B98
:40098000FB181B781A021D4BFB181B88D318DB01C5229200BA181360C6239B00FB18802252001A80154BFA18C6239B00FB1812881B889A4201D2002200E00A22094BFB1823
:4009C0001A70084BFB181B78002B19D000F07FFBC4FCFFFFCFFCFFFF32030000310300002F030000350300009CFEFFFF1E030000360300001D030000B02100001A0300009C
:400A0000CB4BFC18C5239B00FB181A68A823FB18101C191C8022FFF7A9FC031C237004E0C34BFB1809221A7051E350E3C14BFB181B78012B66D1C04BFB181B88012B61D1F1
:400A4000BE4BFB181B78002B5CD1BD4B1B681B68DA0BBC4BFB181A70B84BFA18B94BFB1812781B789A420AD1B54B1B681B68DB099AB2B54BFB18FF210A401A8011E0AF4BA0
:400A8000FA18B04BFB1812781B789A4204D9AE4BFB1800221A8004E0AB4BFB18802252001A80A94BFB181B88DAB2A84BCE2189008C46BC4463441A71A34BFB181B881B0A8F
:400AC0009BB2DAB2A14BCE2189008C46BC4463445A719E4BCE2292009446BC446344FF229A719A4BCE2292009446BC4463440022DA71974BFB1804221A808D4BFB18002246
:400B00001A70E4E2E3E2914BCE2292009446BC4463445B78342B1BD1864BFB181B78012B00D0D4E2844BFB181B88032B00D0CEE2CB239B00FB1880221A80CB239B00FB18D3
:400B40001B88A822BA18101C00211A1C01F017FB784BFB181B78012B00D0DCE0764BFB181B88022B00D8D6E0CB239B00FB181B88A822BA18D118704BFB181B88DA1EEA2323
:400B80005B00FB180733081C191C01F0EFFACB239B00FA18684BFB1812881B88D3189AB2CB239B00FB18033A1A80634BFB1880221A80C4239B00FB18802252001A80CB2304
:400BC0009B00FA185C4BFB1812881B889A4200D097E05E4BCE2292009446BC4463449B799BB21B0299B2594BCE2292009446BC4463445B799AB2CB239B00FB180A431A806F
:400C0000CB239B00FA18C4239B00FB1812881B889A4201D2002200E00A22454BFB181A70434BFB181B78002B00D050E2434BFB181B789BB21B0299B2464BFB18CB229200D0
:400C4000BA1812888A181A803D4B1B681B68DA09CA239B00FB181A80394B1B681B687F22134008D0CA239B00FB181A88CA239B00FB1801321A80374BFA18CA239B00FB18FC
:400C800012881B889A4209D2294BFB180A221A70CB239B00FB1800221A8018E2CC239B00FB181B78002B1AD10C23FB18181C0021802201F064FA284BFB1800221A70264B40
:400CC000FB181B78FF22D21A0C23FB18101C191C00F0F0FBCC239B00FB1801221A701D4BFB181A88A823FB18101C191C00F0E2FB031E01D00A2200E000220D4BFB181A703B
:400D000003E00B4BFB1803221A70CB239B00FB1800221A80DBE1DAE1064BFB181B78012B05D1CB239B00FB1800221A80DDE1CEE1350300002F030000320300001D0300006C
:400D4000D8000020130300002A0300009CFEFFFF360300000E0300000D030000CC4BFB181B78012B34D1CB239B00FB181A88C94BFB181B88D3181A1C96235B009A4222D845
:400D8000C54BFB1800221A70CB239B00FB181B88A822BA18D118BF4BFB181A88EA235B00FB180433081C191C01F0E0F9CB239B00FB18CB229200B918B64ABA180988128823
:400DC0008A181A8004E0B44BFB1803221A707EE17DE1B04BFB181B88002B27D1AF4BCE2292009446BC446344AD4A03CA03C3A84BFB1801221A70AB4BFB1808221A80CB238C
:400E00009B00FB1800221A80A64BFB181A88EA235B00FB18191DA023FB18081C191C01F0A5F99D4BFB1800221A7050E19A4BFB1804221A704BE1964BFB181B78012B00D004
:400E40008CE0944BFB181B88032B00D086E0964BCE2292009446BC4463449B799BB21B0299B2914BCE2292009446BC4463445B799AB28E4BFB180A431A808D4BFB181B7810
:400E80001A028A4BFB181B88D318DB01C1229200BA181360854BFB181B88FF2B01D8002200E00A227C4BFB181A707B4BFB181B78002B00D00BE17F4BFC18C1239B00FB182C
:400EC0001B680020191C8022FFF78AFA031C2370774BFB181B789BB21B0299B2764BFB18724ABA1812888A181A80714BFB181B78002B1ED1704BFB181B88FF2B19D10520D1
:400F0000002100F0B9F9031CDAB26A4BFB186949791809788A1A1A700620002100F0ACF9031CDAB2634BFB186249791809788A1A1A70604BFB181B785B42DAB25A4BCE2148
:400F400089008C46BC4463441A71534BFB1800221A70544BFB1801221A80B8E0B7E00020FFF7F6FA031E02D1544B80221A6000F0E7FDACE0524B1B68002B00D183E0444BC6
:400F8000FB181B78012B00D07DE0474BCE2292009446BC4463445A784A4BCE2189008C46BC4463441A70474BCE2292009446BC446344384ABA1812885A80424BCE2292004F
:400FC0009446BC446344EA225200BA1804325A608C23FB18181C00210C2201F0D0F83A4BCE2292009446BC446344EA225200BA1804329A60324B1B689822B9188C22BA185F
:40100000081C111C9847274BFB182F4ACE2189008C46BC44624492881A80224BFB181A882623FF339A420CD9274BCE2292009446BC4463449A68EA235B00FB1804339A427B
:401040000DD0214BCE2292009446BC4463449B68002B0DD1134BFB181B88002B08D00E4BFB180E221A700F4BFB1800221A802DE0154BCE2292009446BC4463441A68064B6F
:40108000FB181A7022E0044BFB1805221A701DE02F030000320300003503000068FDFFFFA8210000360300009CFEFFFF0A0300001D0300002703000002030000C0000020A9
:4010C0000C01002060FDFFFF54FDFFFFC046124BFB181978EA235B00FA18104BFB181B88081C111C1A1C00F01FF80D4BCE2292009446BC4463441B78002B01D1FFF7D5FA49
:40110000084BFB181B78012B01D1FFF7CEFABD46CF239B009D4490BD3503000036030000CFFCFFFF2F03000090B585B000AF3960111CFB1D021C1A703B1D0A1C1A803B6866
:4011400001221A703B680133FA1D12781A703B6802333A1D1288D2B21A703B6803333A1D1288120A92B2D2B21A703B1D1B8804339BB20E22BC183A68101C191CFFF7CAF873
:40118000031C23803B1D1B8804333A68D3180E22BA181288D2B21A703B1D1B8805333A68D3180E22BA181288120A92B2D2B21A703B1D1B8806333A68D31817221A703B1D5E
:4011C0001B8807339AB239683B1D081C111C1A1C962300F069FD031C181CBD4605B090BD80B5A6B000AF78600A1CFB1C1A707B689022BA1813609023FB181B68DA098E234F
:40120000FB181A807B687F2293438822BA1813609623FB1800221A8014E09623FB181B889622BA1811888822BA1812688A1811780822BA18D1549623FB181A889623FB182E
:4012400001321A809623FB181B887F2BE5D97B687F2213400822BA18F91C0978D1548E23FB181A880823FB18101C191C00F022F9BD4626B080BDC04680B586B000AF021CD8
:40128000FB1D1A70BB1D0A1C1A701323FB1802221A700023FB60FB1D1B780C2B00D9A8E09A00774BD3181B689F46BB1D1A78131C5B069B1ADB01734A944663447B611323C2
:4012C000FB1801221A709AE0BB1D1A78131C5B069B1ADB016C4A944663447B611323FB1804221A708BE0BB1D1A78131C5B069B1ADB01664A944663447B6180E0BB1D1A7850
:40130000131C5B069B1ADB01614A944663447B611323FB1804221A7071E0BB1D1A78131C5B069B1ADB015B4A944663447B611323FB1801221A7062E0BB1D1A78131C5B067B
:401340009B1ADB01544A944663447B611323FB1801221A7053E0BB1D1A78131C5B069B1ADB014E4A944663447B6148E0BB1D1A78131C5B069B1ADB01494A944663447B6195
:401380003DE0BB1D1A78131C5B069B1ADB01454A944663447B6132E0BB1D1A78131C5B069B1ADB01404A944663447B611323FB1804221A7023E0BB1D1A78131C5B069B1A6A
:4013C000DB013A4A944663447B611323FB1801221A7014E0BB1D1A78131C5B069B1ADB01334A944663447B611323FB1804221A7005E0002000F09AFB00237B61C046132323
:40140000FB181B78012B03D17B691B78DBB2FB601323FB181B78022B0BD17B691B78DBB2FB607B6901331B78DBB21B02FA681343FB601323FB181B78042B1BD17B691B788D
:40144000DBB2FB607B6901331B78DBB21B02FA681343FB607B6902331B78DBB21B04FA681343FB607B6903331B78DBB21B06FA681343FB60FB68181CBD4606B080BDC046B0
:4014800004220000C07F0000C17F0000C57F0000C97F0000D07F0000D17F0000D67F0000D27F0000D47F0000D87F0000DC7F0000E07F000090B5AFB000AF7860396000236B
:4014C0009422BA18136000239022BA1813600023A022BA1813600023B422BA1813600023B022BA1813600023AC22BA1813600023A822BA1813607B68FF2B00D943E13B6820
:40150000002B00D13FE10823FB1808331A1C3B68101C191C802200F029FE0223A422BA1813602FE00823FB18A422BA1812689200D3589C22BA1813609C23FB181B68002B54
:4015400019D0AC23FB181A689C23FB181B68D318AC22BA181360A823FB181A689C23FB181B681343A822BA181360A423FB181B68B422BA181360A423FB181B680133A422E2
:40158000BA181360A423FB181B68212BCAD9AC23FB181B68002B06D1A823FB181B68002B01D0012300E00023A022BA181360A023FB181B68002B11D00823FB18B422BA185D
:4015C00012689200D358B022BA1813600823FB18B422BA18126892000021D1500823FB186E4A1A600823FB187F225A606C4B0822BA181A606B4B6C4A1A60694B1B681B0FEC
:401600001A07A0231B069A4204D0654B1B680F22134000E000239422BA1813609423FB181B68002B00D0ADE09B23FC1800F076FB031C237000F0C2F8031C9022BA181360C6
:401640009423FB181B68002B24D10823FB18574A1A600823FB181A687B681B041A430823FB181A604E4B0822BA181A604D4B504A1A604B4B1B681B0F1A07A0231B069A42EE
:4016800004D0474B1B680F22134000E000239422BA1813609423FB181B68002B60D1A023FB181B68002B5BD00823FB180833181C0021802200F063FD0823FB18B422BA18C1
:4016C00012689200B02179180968D1500823FB18324A1A600823FB187F225A60304B0822BA181A602F4B304A1A602D4B1B681B0F1A07A0231B069A4204D0294B1B680F22BC
:40170000134000E000239422BA1813609423FB181B68002B24D10823FB18264A1A600823FB181A687B681B041A430823FB181A601B4B0822BA181A601A4B1F4A1A60184B65
:401740001B681B0F1A07A0231B069A4204D0144B1B680F22134000E000239422BA1813609023FB181B68002B05D100F039F8031C9022BA1813609B23FB181B78181C00F09A
:40178000D1FA04E003E004239422BA1813609423FB181B68181CBD462FB090BDB6D70000080000400400004004000080B6D8000005000080B6D900000600008080B582B099
:4017C00000AF00237B60044B1A68044B1A607B68181CBD4602B080BD08010B401001002080B582B000AF00237B60044A044B1B6813607B68181CBD4602B080BD08010B4010
:401800001001002090B585B000AF78600C23FC1800F084FA031C23707B68022B00D8B0E07B68302B00D9ACE05C4B1B78DBB21A1E7B689A420AD35A4A0F23FB1812781A7060
:40184000584A0E23FB1812781A703FE0564B1B78DBB21A1E7B689A420AD3544A0F23FB1812781A70524A0E23FB1812781A702DE0504B1B78DBB21A1E7B689A420AD34E4A9B
:401880000F23FB1812781A704C4A0E23FB1812781A701BE04A4B1B78DBB21A1E7B689A420AD3484A0F23FB1812781A70464A0E23FB1812781A7009E0444A0F23FB18127844
:4018C0001A70434A0E23FB1812781A707B68DA1E0B23FB183F498A5C1A700B23FB181B782F2B0DD97B682A2B0AD93B4B19221A60052000F009FA0D23FB1819221A7007E0F4
:40190000354B1B68DAB20D23FB183F210A401A700B23FA180D23FB1812781B789A4208D22D4B7A68033A2B498A5C1A60052000F0EBF92A4B7A6826498C4662441278D2B29B
:401940001A60274B0F22BA1812781A60254B0E22BA1812781A60052000F026F90B23FA180D23FB1812781B789A4209D91A4B7A68033A18498A5C1A60052000F0C5F903E071
:4019800002E0002000F0D2F80C23FB181B78181C00F0C8F9BD4605B090BDC046C0F1FF0FC1F1FF0FC2F1FF0FC3F1FF0FC4F1FF0FC5F1FF0FC6F1FF0FC7F1FF0FC8F1FF0FCB
:4019C000C9F1FF0FCAF1FF0FCBF1FF0FCCF1FF0FCDF1FF0F382200002CFF0B4028FF0B401CFF0B4020FF0B4080B584B000AF021C3960FB1D1A7080239B05FB60FB1D1B7829
:401A00001F2B02D9002000F091F8FB1D1B7810339B00FA68D3181B68BB60FB1D1B7810339B00FA68D3183A681A60BB68181CBD4604B080BD90B587B000AF021CFB1D1A704C
:401A4000BB1D0A1C1A70BB1D1B78032B02D9002000F06CF8FB1D1B781F2B02D9002000F065F8FB1D1B7803221340DB0006337B611323FC1800F052F9031C2370FB1D1B78C4
:401A80009B08DBB29B00144A944663441B68FB607B6903229A40131CDA43FB681340FB60BB1D1A787B699A40131CFA681343FB60FB1D1B789B08DBB29B00074A94466344AC
:401AC000FA681A601323FB181B78181C00F02AF9BD4607B090BDC04600E400E080B582B000AF021CFB1D1A70054BFA1D12781F210A40012191400A1C1A60BD4602B080BD40
:401B000000E100E080B582B000AF021CFB1D1A70054BFA1D12781F210A40012191400A1C1A60BD4602B080BD80E100E080B582B000AF021CFB1D1A7001BEBD4602B080BD46
:401B400080B500AF044B044A12681204120C03490A431A60BD4680BD0CED00E00400FA0580B582B000AF786009E00C4B1B68181C00F0CAF87B680A4A944663447B607A68FB
:401B800080231B029A42F0D8064B1B687A685343181C00F0B9F8BD4602B080BDE80000200080FFFFE000002080B582B000AF021CBB1D1A80BB1D1B88044A12785343181C65
:401BC00000F0A2F8BD4602B080BDC046E400002080B500AF00F0C4F8BD4680BD90B589B000AFF860081C7A60191C0A23FB18021C1A800923FB180A1C1A700123FB61FB680D
:401C0000002B4BD00A23FB181B88002B46D01023FB610923FB181A78131C9B009B185B007B610023BB6100F0E3F8031E1BD000F0DFF8031CBB61AD20FFF7B6FF00F0D8F8D6
:401C4000021EBB699A42F2D10A23FB181B88BA69934200D9131CBB61BB699AB27B681A800023FB6108E00120FFF77AFF7B69013B7B617B69002BD6D100233B610AE0FA68E1
:401C80003B69D41800F08CF8031CDBB223703B6901333B613A69BB699A42F0D3FB69181CBD4609B090BDC04680B586B000AFF860081C7A60191C0A23FB18021C1A80092397
:401CC000FB180A1C1A7001237B61FB68002B13D00A23FB181B88002B0ED00A23FB181B88FA68101C191C00F0EFF87B680A22BA1812881A8000237B617B69181CBD4606B062
:401D000080BDC046000000000230800804D0C0460138FDD1C046C046C0467047EFF3108072B6704780F310887047C046C046C04680B500AF00F0E2F8BD4680BD80B500AF05
:401D4000064B064A1268802109060A431A6000F019F800F01FF8BD4680BDC0460000074080B500AF064B1B78002B04D1FFF7E0FF034B01221A70FFF7E1FFBD4680BDC04688
:401D80001401002080B500AF0B20FFF7A7FEBD4680BDC04680B500AF00F02AF9BD4680BD80B582B000AF00237B600E4B1A680E4B1B689A4211D00C4B1B6801333B603B68F3
:401DC000412B01D100233B60084A3B68D3181B78DBB27B60044B3A681A607B68181CBD4602B080BDAC010020240100206801002080B582B000AF0C4B1B683B600B4B1B6899
:401E00003A689A4205D3094B1B683A68D31A7B6005E0064B1B683A68D31A41337B607B68181CBD4602B080BDAC0100202401002080B584B000AF78601C4B1A681C4B1B6896
:401E40009A4209D11B4B1B680F221340082B03D0194B7A681A6026E0144B1B680133FB60FB68402B01D10023FB60C046104B1B68FA689A42FAD0114B02221A607B68D9B290
:401E80000F4AFB68D3180A1C1A70084BFA681A600C4B1B680222134005D10A4B094A126802210A431A60BD4604B080BD200100201C0100200802074040020740800F074047
:401EC00028010020880F074080B584B000AF786039600023FB6009E07A68FB68D3181B78181CFFF7A5FFFB680133FB60FA683B689A42F1D3BD4604B080BDC04680B500AFC5
:401F0000244B254A1A60254B00221A60244B01221A60244B244A1A60244B07221A60244B00221A60234B01221A60234B1E4A1A60224B00221A600B20FFF7E4FD0B20032108
:401F4000FFF778FD1E4B0B20191CFFF74DFD1D4B00221A601C4B00221A601C4B00221A601B4B00221A601B4B04221A601A4B00221A601A4B00221A60194B00221A60194B75
:401F800000221A70184B00221A60184B00221A60BD4680BD000007400B00000240000740480007400003074007000080040307401003074044000740000207400402074033
:401FC0000D200000880E0740C80E0740480F0740080F0740C80F0740880F0740AC01002024010020A9010020200100201C01002080B500AF044B044A1268F0218A439021DE
:402000000A431A60BD4680BD0C00014080B582B000AF324B1B68002B02D0304B1B6898472F4B1B680422134026D02E4B1B6801337B607B68412B01D100237B602A4B1B68CE
:402040007A689A4205D1294B1B68294B20221A700AE0264B1B68D9B2264A7B68D3180A1C1A70204B7A681A60234B1B680F221340DBD1224B04221A60214B1B6802221340E3
:4020800029D0204B1A68204B1B689A4213D01E4B1B6801333B603B68402B01D100233B601A4B1B493A688A181278D2B21A60164B3A681A6006E0174B164A126802218A4310
:4020C0001A6005E0144B1B680F221340082BD8D1124B02221A60BD4602B080BD18010020CC0F0740AC0100202401002040030740A90100206801002008030740C00F0740A0
:402100008C0F0740200100201C0100204002074028010020880F074008020740800F07400E4B70B500251E1C0D4CE41AA410A54204D0AB00F35898470135F8E700F094F85F
:40214000084B00251E1C084CE41AA410A54204D0AB00F35898470135F8E770BD7422000074220000742200007C220000002310B5934203D0CC5CC4540133F9E710BD031CA5
:402180008218934202D019700133FAE770470000B0000000002300000000000000300F40000400400F4000049311B604112801019C0800002C0A0000740F0000060B000099
:4021C000180D0000740F00005C0D0000D20D0000060B0000360E00005E0F0000740F0000740F0000740F0000740F0000740F0000740F0000740F0000740F0000740F000092
:40220000E6080000F2130000AA120000C8120000E6120000FC1200001A130000381300006C130000561300008213000098130000B6130000D4130000030405060708090A8B
:402240000B0C0E0F101112131415161718191B1C1D1E1F2021222325262728292A2B2E2F3031323334350000F8B5C046F8BC08BC9E4670479501000079020000F8B5C04618
:40228000F8BC08BC9E4670476D010000A0220000D000002020000000C0000000000000000000000090210000942100000024F400803E0000100000000000401F0000000060
:4022C00000000000000000000000000000000000000000000000000000000000000000000000000000000000000000000000000000000000000000000000000000000000DE
:4023000000100020112300007D2500007D25000008B5024B83F3088800F032F90010002010B5184C23688022D20213432360182000F07CFA2268144B13402360134A144B7E
:402340001A601022134B1A602032134B1A60103A124B1A6080221206114B1A60114B124A1360124A1360124A124B1A600920124900F01CFA092000F00DFA00220F4B1A6031
:4023800010BDC04600010B40FFFFFBFF0600008004010B40080202400C0202402002024008010B4001000080000002404000024010000080800002403D2A00000C020B4085
:4023C00010B572B60122314B1A70002410E0304863001A195200821891881B195B001A5AC31858880004104300F034F90134E4B2012CECD92649081C0C302C3100F010F98C
:40240000244A254B1A60254A254B1A60254B264A136080210906254A1160254A136080229202244B1A6099221204234B1A600522224B1A60033A224B1A60224B18780221FC
:4024400001431970204C21783C20814328380143217018781621014319701C491C4B196001211C4B19601C4B1A601C491C4B19601C4B1A600D231C4A13601C491C4A11600E
:402480001C4A1360FFF74CFF10BDC0461C700F40702B000099EE00000C000140FFFF0000100001400400990000500F4004500F4020500F4024500F4030500F402000004006
:4024C00000800F4000700F4001700F4006002000080004400802044000030440B10D00000803044018030440000404408E0D0000080404401804044010B5064C2378002BAB
:4025000007D1054B002B02D0044800E000BF0123237010BDE800002000000000642B000008B5084B002B03D00748084900E000BF07480368002B00D108BD064B002BFBD061
:402540009847F9E700000000642B0000EC000020D00000200000000008B562B6FA20800000F042F900F07CF800F098F80248052100F0B2F8FAE7C046682B0000FEE7C04624
:4025800070B50F4E0F4D13E029686B68AC68002202E001C901C30432A242FAD1E868002202E0002102C304328242FAD11035013E002EE9D100F0A8FAFFF7CEFFFEE7C046B0
:4025C000010000002C2C000008B500230AE0032B03D89A000D49505800E00D4899000D4A885001332F2BF2D9FFF7EAFE00220A4B1A600A4B1B68002B01D1084B1A608022AE
:40260000D205116801230B43136008BD002300007D25000000000020C8000020C0000020F0B50025002711E0BB00C658F3B2FF22964308E06A008A181478A4195278227000
:402640000135013BDBB2002BF4D10137072FEBD9F0BDC04608B50A1C002100F07BFA08BD08B54022024B1A6000F0B2F808BDC046C000002008B500F083F808BD08B500F093
:4026800037F808BD08B5044A1368802109060B431360FFF7EFFF08BD0000074008B5064B1B78002B04D1FFF7E9FF0122024B1A70FFF7E8FF08BDC04604010020044B1B6827
:4026C0000F221340082BF9D0024B18607047C046080207404002074070B5061C0D1C002403E0305DFFF7EAFF0134AC42F9D370BD10B5124A124B1A600023124A13600121F3
:40270000114A1160114A12480260072411480460114803601148016011490A60114A1360114A1360114A1360114A1360114A1360114A1360114A136010BDC0460B00000212
:4027400000000740400007404800074007000080000307400403074010030740440007400002074004020740880E0740C80E0740480F0740080F0740C80F0740880F074070
:4027800003490B68F0229343603A13430B6070470C0001401F2318401E3B8340181C014B1860704700E100E001BE704738B5041C0D1C1F2802D90020FFF7F6FFA400034B22
:4027C0009C4664442068256038BDC04640000020034A13681B041B0C02490B43136070470CED00E00400FA0510B5041C06E0084B186800F075F9074B9C46644480231B02A2
:402800009C42F4D8024B5868604300F069F910BDD40000200080FFFF08B5034B1B7A584300F05EF908BDC046D4000020F0B557464E46C0B483B0041C00F05CF90190E71EF4
:402840002D2F74D83F4B1B78DBB2A34208D33E4B1B78DBB29A463D4B1B78DBB2994631E03B4B1B78DBB2A34208D33A4B1B78DBB29A46394B1B78DBB2994623E0374B1B789F
:40288000DBB2A34208D3364B1B78DBB29A46354B1B78DBB2994615E0334B1B78DBB2A34208D3324B1B78DBB29A46314B1B78DBB2994607E02F4B1B78DBB29A462E4B1B7813
:4028C000DBB299462D4BDE5D2F2E09D92A2C07D919222B4B1A60052000F002F9192503E0274B1D683F231D40AE4206D2234BDA5D234B1A60052000F0F3F81F4B9C466444E9
:402900002378DBB21F4A13601F4B52461A601F4B4A461A600520FFF77FFFAE420AD9174BDA5D174B1A60052000F0DAF802E00020FFF73AFF019800F0E1F803B00CBC9146F6
:402940009A46F0BDC0F1FF0FC1F1FF0FC2F1FF0FC3F1FF0FC4F1FF0FC5F1FF0FC6F1FF0FC7F1FF0FC8F1FF0FC9F1FF0FCAF1FF0FCBF1FF0FCCF1FF0FCDF1FF0FD82B0000FA
:402980002CFF0B4028FF0B401CFF0B4020FF0B40034B1868C0231B02184000D00120704700010B4008B500F0A5F8044A1368C02109020B43136000F0A1F808BD00010B40EB
:4029C00010B500F097F808490A68084B1A408024E40122430A600A6813408022120213430B6000F08BF810BD00010B40FF3FFFFF70B5061C00F07EF8041CFFF7C9FF002814
:402A000003D0FFF7DDFF012500E000250848331C0340084A106808490840184310601368012D01D1FFF7BEFF201C00F067F870BD0404040010020B40FBFBFBFF10B5244B43
:402A40001B685B0715D5234B1B685B070ED5224B9969042001401F4C22688A4322609A6982439A61DB68002B00D098470420FFF7BFFF174B1B685B0518D5164B1B685B050B
:402A800010D5154B99698022D2001140114802688A4302609969114A0A409A611B69002B00D098478020C000FFF7A2FF084B1B685B030CD5074B1B685B0304D5064B5B69EB
:402AC000002B00D098478020C002FFF791FF10BD10020B40E400002008010020FFFBFFFF0230800804D0C0460138FDD1C046C046C0467047EFF3108072B6704780F3108805
:402B00007047C046C046C0460E4B70B500251E1C0D4CE41AA410A54204D0AB00F35898470135F8E700F070F8084B00251E1C084CE41AA410A54204D0AB00F3589847013569
:402B4000F8E770BD142C0000142C0000142C00001C2C0000031C8218934202D019700133FAE770470000000048656C6C6F00000000300F40000400400F40000403300F4000
:402B800006310F4002330F4008400F4005410F4002420F4002430F4002600F40D604DB04DF015C405F2067408740D630D880AF20B4400F046E8073088640C280DA80DC20EA
:402BC000E64023089F08AF04C810E8400108C008B508EA0202011101030405060708090A0B0C0E0F101112131415161718191B1C1D1E1F2021222325262728292A2B2E2FDA
:402C00003031323334350000F8B5C046F8BC08BC9E46704721250000C9250000F8B5C046F8BC08BC9E467047F9240000402C0000D0000020180000004000000000000000D4
:402C4000000000000000E02EC05D00001800000000366E01040404000000000000000000000000000000000000000000000000000000000000000000000000000000000060
:402C80000000000000000000000000000000000000000000000000000000000000000000000000000000000000000000000000000000000000000000000000000000000014
:402CC00000000000000000000000000000000000000000000000000000000000000000000000000000000000000000000000000000000000000000000000000000000000D4
:402D00000000000000000000000000000000000000000000000000000000000000000000000000000000000000000000000000000000000000000000000000000000000093
:402D40000000000000000000000000000000000000000000000000000000000000000000000000000000000000000000000000000000000000000000000000000000000053
:407FC0008211230000450000008009000000000000000100FFFF0100FFAAFF0000000000000000000000000000000000000000000000000000000000000000000000000055
:0200000490303A
:02000000DA50D4
:0200000490402A
:200000000000000000000000000000000000000000000000000000000000000000000000E0
:0200000490501A
:0C000000000204B61193110104C4EBE3EC
:0200000490600A
:0100000001FE
:00000001FF